:080000000C94A5010C94000012
:100008000C9400000C9400000C9400000C94000068
:100018000C9400000C9400000C9400000C94000058
:100028000C9400000C9400000C9400000C94000048
:100038000C9400000C94D2010C9400000C94000065
:100048000C9400000C9400000C940000050720603C
:10005800000000000000005F000000070007001417
:100068007F147F14242A7F2A1223130864623649D6
:100078005522500005030000001C224100004122C7
:100088001C00082A1C2A0808083E080800503000EE
:100098000008080808080030300000201008040292
:1000A8003E5149453E00427F400042615149462148
:1000B80041454B311814127F1027454545393C4AB4
:1000C8004949300171090503364949493606494904
:1000D800291E00363600000056360000000814229B
:1000E8004114141414144122140800020151090681
:1000F800324979413E7E1111117E7F494949363E88
:10010800414141227F4141221C7F494949417F09A0
:100118000901013E414151327F0808087F00417FB3
:1001280041002040413F017F081422417F40404068
:10013800407F0204027F7F0408107F3E4141413E18
:100148007F090909063E4151215E7F091929464662
:100158004949493101017F01013F4040403F1F208B
:1001680040201F7F2018207F63140814630304783D
:100178000403615149454300007F414102040810CE
:100188002041417F000004020102044040404040F9
:10019800000102040020545454787F4844443838FD
:1001A80044444420384444487F3854545418087E02
:1001B800090102081454543C7F0804047800447D63
:1001C80040002040443D00007F10284400417F400B
:1001D800007C041804787C080404783844444438C3
:1001E8007C14141408081414187C7C0804040848A7
:1001F80054545420043F4440203C4040207C1C2060
:1002080040201C3C4030403C44281028440C5050AE
:10021800503C4464544C44000836410000007F00C0
:1002280000004136080002010204027F4141417F7B
:10023800000103070F1F3F7FFF001027E80364003A
:100248000A00010000100001100001006F6B00415E
:10025800004200430044004500460047004800496A
:10026800004A004B004C004D004E004F005000511A
:1002780000520053005400550056005700580059CA
:10028800005A0020000001002D4E414E00494E4604
:1002980000000300600254020200630257020200D9
:1002A80065025902020067025B02020069025D02F0
:1002B80002006B025F0202006D02610202006F021F
:1002C8006302020071026502020073026702020003
:1002D80075026902020077026B02020079026D0260
:1002E80002007B026F0202007D02710202007F029F
:1002F8007302020081027502020083027702020083
:1003080085027902020087027B02020089027D02CF
:1003180002008B027F0202008D02810202008F021E
:100328008302020091028502020093028702020002
:1003380095028902020097028B02010000038E02D7
:100348000000F894EE27ECBBF1E0FBBFEBBFE5BF84
:100358008DE0A2E0BB27ED938A95E9F780E098E06D
:10036800A0E6ED930197E9F7EAE9F2E08591959126
:10037800009761F0A591B59105901590BF01F00126
:1003880005900D920197E1F7FB01F0CFEFE5EDBF86
:10039800E8E0EEBFC0E6D2E00C94EF03AA93EA933C
:1003A800FA93EFB7EA93E091FC02E030A9F0E1504C
:1003B800E093FC02E091FB02EF5FE093FB02E15067
:1003C800F0E0E652FD4FE081ECB9A091FB02A032CB
:1003D80019F4E0E0E093FB02E991EFBFF991E991AC
:1003E800A9911895AA93A091FC02A032E1F3F89480
:1003F800E091FC02E03011F45D9918C0E091FA0236
:10040800EF5FE093FA02E150F0E0E652FD4FA88179
:10041800A083A091FA02A03219F4E0E0E093FA0276
:10042800E091FC02EF5FE093FC0202C0E881ECB9C6
:1004380078940C94AA04A898A99AAA9AAB9A9C9919
:1004480003C0E0E0F0E008959D9903C0E2E0F0E029
:1004580008959E9903C0E4E0F0E008959F9903C0D1
:10046800E6E0F0E00895A89AA998AA9AAB9A9C9910
:1004780003C0E8E0F0E008959D9903C0EAE0F0E0E9
:1004880008959E9903C0ECE0F0E008959F9903C099
:10049800EEE0F0E00895A89AA99AAA98AB9A9C99D8
:1004A80003C0E0E1F0E008959D9903C0E2E1F0E0C7
:1004B80008959E9903C0E4E1F0E008959F9903C070
:1004C800E6E1F0E00895A89AA99AAA9AAB989C99AF
:1004D80003C0E8E1F0E008959D9903C0EAE1F0E087
:1004E80008959E9903C0ECE1F0E008959F9903C038
:1004F800EEE1F0E00895E0E2F0E00895BA93AA93FF
:100508000E942505E2E3EA93E9E1EA93A0E6B2E076
:100518000E947208A4EFB1E00E94AE0B0E94E60AA6
:100528000E94E60AE091B602E093D902E091B60291
:10053800F091B7020E94D00BE093D802A091D902A3
:1005480051DFA091D8024EDFAA24BB24E091B60265
:10055800F091B702AE16BF067CF4F501A881B98107
:10056800AE0FBF1FAC913EDFAAE0B0E00E94AE0B19
:10057800F50131965F01EACFE881F9810E94F10A1D
:10058800C7C1BA93AA930E942505E881F9813097DB
:1005980031F40E94FC0AA3E6B2E00E944B0AA8814B
:1005A800B981119731F40E94FC0AA5E6B2E00E94D5
:1005B8004B0AA881B981129731F40E94FC0AA7E678
:1005C800B2E00E944B0AA881B981139731F40E94C6
:1005D800FC0AA9E6B2E00E944B0AA881B9811497E7
:1005E80031F40E94FC0AABE6B2E00E944B0AA881F3
:1005F800B981159731F40E94FC0AADE6B2E00E9479
:100608004B0AA881B981169731F40E94FC0AAFE61B
:10061800B2E00E944B0AA881B981179731F40E9471
:10062800FC0AA1E7B2E00E944B0AA881B981189799
:1006380031F40E94FC0AA3E7B2E00E944B0AA881A9
:10064800B981199731F40E94FC0AA5E7B2E00E942B
:100658004B0AA881B9811A9731F40E94FC0AA7E7CE
:10066800B2E00E944B0AA881B9811B9731F40E941D
:10067800FC0AA9E7B2E00E944B0AA881B9811C973D
:1006880031F40E94FC0AABE7B2E00E944B0AA88151
:10069800B9811D9731F40E94FC0AADE7B2E00E94CF
:1006A8004B0AA881B9811E9731F40E94FC0AAFE772
:1006B800B2E00E944B0AA881B9811F9731F40E94C9
:1006C800FC0AA1E8B2E00E944B0AA881B9815097C0
:1006D80031F40E94FC0AA3E8B2E00E944B0AA88108
:1006E800B981519731F40E94FC0AA5E8B2E00E9452
:1006F8004B0AA881B981529731F40E94FC0AA7E8F5
:10070800B2E00E944B0AA881B981539731F40E9444
:10071800FC0AA9E8B2E00E944B0AA881B981549763
:1007280031F40E94FC0AABE8B2E00E944B0AA881AF
:10073800B981559731F40E94FC0AADE8B2E00E94F5
:100748004B0AA881B981569731F40E94FC0AAFE898
:10075800B2E00E944B0AA881B981579731F40E94F0
:10076800FC0AA1E9B2E00E944B0AA881B981589716
:1007780031F40E94FC0AA3E9B2E00E944B0AA88166
:10078800B981599731F40E94FC0AA5E9B2E00E94A8
:100798004B0AA881B9815A9731F40E94FC0AA7E94B
:1007A800B2E00E944B0AA881B9815E9721F4E8EB78
:1007B800F2E00E94F10AA881B9815C9719F4A8EBCC
:1007C800B2E09CDEE0E0EA93E9E1EA93A8EBB2E06C
:1007D8000E9472089DC02697EFE0E4BBE0EFE5BBFE
:1007E800E0E0EBB9E8E4EAB9E6E8E0BDE0E0E0BD66
:1007F800E3E3E9B9E0E8E8B9E0E0E0BFE4E5F0E028
:10080800E883F983E0E0EA83EB83EC83ED83DE01A0
:10081800B3D07894CC24DD240EDE2F01E0E2F0E0A2
:10082800E415F505C9F3ACE2B1E00E94AE0B8824EB
:100838009924ECEBF2E08E169F0664F4FCDD3F0190
:100848006414750419F4F60131966F01F4013196B8
:100858004F01EFCF00240C140D0424F4F20131965B
:100868008F0101C08201D8018CDEACE2B1E00E94A8
:10087800AE0BD0CFFFCF0000929A00000895929857
:100888009698979808951A93F6DF19B39298E12FDE
:1008980019910895AA931A93E0E0EABB939A949861
:1008A800E981EF5F1E2F10FF02C0969A01C096984B
:1008B80011FF02C0979A01C09798E5DFE078E9F741
:1008C800188126C0AA93A981E5DF0E94010B20C0E8
:1008D800E091FE02EA93E091FD02EF73E064AE2F2F
:1008E800F1DFE091FE02EA93E091FF02E86BAE2FA0
:1008F800E9DF0895AA93E981E093FD02E295EF709C
:10090800E695E695E093FE02E881E093FF02E0DFDA
:1009180022960895A091FD02AF5FA093FD02A03832
:1009280018F0E0E0E093FD02E091FD02EF7331F48E
:10093800E091FD02EA93A091FF02DCDF0895AA93FB
:10094800A091FE02A7DF949A0E94010B21960895B8
:10095800A091FE029FDFE0E0EABB939A949A93DFAE
:100968000895AA93E981EA93E9810E940A0BF0DFCE
:10097800AFDFEEDF0C947E0ABA93AA931A938A9A91
:100988008B9A8C9A8D9A959A8E9A8F9A78DF9598E9
:10099800A4E6B0E00E94AE0B959A10E0123040F445
:1009A8001A93AFE38FDF1A931395A0EC8BDFF6CF82
:1009B800E1E0E0939902E0E0E0939A02E981FA81AC
:1009C8003097A9F0A981BA810E94DD0BE0939D02BE
:1009D800F0939E0212960E94DD0BE093B202F09310
:1009E800B302A981BA8114960E94DD0B0AC0E0E027
:1009F800F0E0E0939D02F0939E02E093B202F09340
:100A0800B302E093B402F093B502E1E0E0939F02F1
:100A1800E093A002E093A102EFEFE093A202E1E0ED
:100A2800E093A902EAEAF2E0FA93EA93EFEFEA9395
:100A3800A8E0B0E00E943B0A04D0E1E018810C94E1
:100A4800C50A0E94080C00E030E0E0919A02E0300C
:100A580009F00FEF383078F4E0E0EA93A32F3F5F16
:100A680049DF10E0A12F1F5FA03820F4A02F0E94BB
:100A7800100BF8CFEFCFE0E0EA93A0E03BDFE0E037
:100A8800EA93A0E040D30E940F0C0C94E40AAA93C6
:100A98001A93ED81EA93AD8164DF1E2F19DFE98196
:100AA800E73011F0E83039F4EB81EA93AA810E942B
:100AB800800AEB8308C0E33021F4EB81E095EB83F7
:100AC80002C0E03021F4EA81E0951E2302C0E23042
:100AD80029F4EA81AB81EA231E2B0EC0E13029F408
:100AE800EA81AB81EA231E2707C0E43029F4EA81B2
:100AF800E095AB81EA2B1E23A12F0E94100B1881D1
:100B080026960895AA9323970E94060CA889A038D0
:100B180048F4AF85A03430F4AE85A03019F0AD8527
:100B2800A03009F4C8C1EE85E887A889BB27EE85FF
:100B3800F0E0AE0FBF1FA138E0E0BE0720F0A889A3
:100B4800E0E8EA1BEE872D85AF85BB27ED85F0E051
:100B5800AE0FBF1FA134E0E0BE0720F0AF85E0E490
:100B6800EA1BED87A985A63009F05BC0EC85E1306A
:100B780009F4A1C1E33039F4E091B402F091B5026F
:100B8800309709F498C10885ED85E695E695E695D0
:100B98003E2FE22FE77019F4AD852A17E9F0A02F50
:100BA800BB27E32FF0E00E94D50BAA85BB850E94E6
:100BB800140B269526952695532F5F935F5FE22F9A
:100BC800AF91EA1748F0102FE12F1150E03019F0DB
:100BD8000E94190BF9CFF1CFAE850A1711F1EE85F6
:100BE800AA85BB85F0E00E94140BED85E77009F03B
:100BF8003F5F20E02F932F5FE32FAF91AE1788F46C
:100C08001E851F931F5FE02FAF91AE1718F40E9447
:100C1800190BF7CFEE85AE81BF81F0E00E94140B6F
:100C2800E9CFEF85E7703E2FED85E03009F443C149
:100C3800EA85FB85EE83FF8310E00889303009F0F0
:100C480065C0AD85A83008F45CC0E985E03011F0D6
:100C5800E33009F402C0E73009F402C0E83009F4CF
:100C680002C0E63009F402C0E93009F402C0EA30F3
:100C780021F40A93E8890E940A0B1F931F5FEE85EF
:100C8800AF91AE17B8F5A985A63061F461DE20DE14
:100C98000E94260BFA93EA935BDEAE2F0E94C70AE6
:100CA80039DE27C0E985E93011F450E00EC0EA309A
:100CB80011F45FEF0AC00E94260B0E942F0B5E2FD3
:100CC800E985E73011F0E83021F40E94350B5E2FFA
:100CD80006C0E33011F4509502C0E03021F4A52F8E
:100CE8000E94100B06C00E94390BEFEFEA93AD8506
:100CF800CEDEC3CFEF85E85FEF87ED85E850ED875F
:100D0800D1C05D8520E0E0E0ED877AC0E32FAD85B6
:100D1800AE0FA93020F42D85E0E0ED8703C0E8E0B0
:100D2800E31B2E2F3A93A22F0E94750A4E2FE985B6
:100D3800E630F1F41F931F5FEE85AF91AE17B8F45C
:100D48000E943F0BAE2FE32F0E94C80B0E94460B58
:100D5800E32FA42F0E94C80BE095E1215E2B0E948F
:100D6800260BFA93EA93A52F0E94C70AE3CF2CC05B
:100D7800E93011F450E003C0EA30A9F45FEF0E94B3
:100D8800350BAE2FE32F0E94C00B5E2F1F931F5F02
:100D9800EE85AF91AE1730F40E94390B4A93A0E06C
:100DA80076DEF4CF11C01F931F5FEE85AF91AE17AB
:100DB80058F40E94510BAE2FE32F0E94C00BEA9308
:100DC8004A93AD8564DEEFCFED85E03009F473C05A
:100DD800AD85A83028F4ED85E21B5E2FE0E003C066
:100DE800532FED85E850ED8710E0EF85E85FEF873A
:100DF800E8E0E31B2E2F0889EA85FB85EE83FF8355
:100E0800E52FF0E0E85CFD4F4491E985E630F1F428
:100E18001F931F5FEE85AF91AE17B8F40E943F0B8A
:100E2800AE2FE22F0E94C00B0E94460BE22FA42F88
:100E38000E94C00BE095E1215E2B0E94260BFA93DD
:100E4800EA93A52F0E94C70AE3CF2CC0E93011F41A
:100E580050E003C0EA30A9F45FEF0E94350BAE2FD3
:100E6800E22F0E94C80B5E2F1F931F5FEE85AF9184
:100E7800AE1730F40E94390B4A93A0E008DEF4CF95
:100E880011C01F931F5FEE85AF91AE1758F40E94F3
:100E9800510BAE2FE22F0E94C80BEA934A93AD85FF
:100EA800F6DDEFCFE885AA85BB85F0E0EA0FFB1FEA
:100EB800EA87FB87B9CE0E940D0C619608950E94BF
:100EC8005E0B24F0E0E0F0E00C947E0AA881B98182
:100ED800A038E0E0BE0724F0EFE7F0E00C947E0ACB
:100EE800E881F9810C947E0A0E945E0B24F0E0E010
:100EF800F0E00C947E0AA881B981A034E0E0BE0736
:100F080024F0EFE3F0E00C947E0AE881F9810C9478
:100F18007E0ABA93AA9323970E94650B8F01002E2D
:100F2800012A19F4E0E0F0E05FC00E946C0B0F8228
:100F38000E946C0B0E820E946C0B0886EB85A885BC
:100F4800EA1718F4E0E0F0E04FC0F8010F5F1F4F18
:100F58005491A885BB27EE27A50FBE1FEB85F0E0AF
:100F6800EA17FB0718F0E0E0F0E03EC0EE81E695F6
:100F7800E695E6954E2FEE81E77009F04F5FEF8119
:100F8800E030A1F0A985BA85EC93A885EB85EA1B2A
:100F9800F0E0DF01EF81F0E00E94D50BDF01E42FE4
:100FA800F0E00E94D50BE00FF11F1EC09801E52F5D
:100FB800F0E00E0F1F1FA885AF5FA887A150EB8533
:100FC800AE1760F4F9012F5F3F4FA491B0E0E42F12
:100FD800F0E00E94D50B0E0F1F1FEDCFF901E49131
:100FE800A985BA85EC93F8010E940D0C2C960895FA
:100FF800E0E0E0939B02A0919C02BB270E94710B4A
:10100800F0E0AE0FBF1FE091A002F0E0AE0FBF1FEF
:101018006BDFE0939C020895AA9321970E94650BC9
:10102800309709F455C0AF81AA3009F44FC0EF8159
:10103800EA93DE0117966DDFAF01309709F44AC0D5
:10104800E0919F02AE81EA0F3E2FA0919B02BB2741
:10105800F0E0EA0FFB1F8F010138E0E01E0718F0EF
:10106800032F1127C5DFE0919B02EA93E0919C02D0
:10107800EA93E885EA930E94710BEA93E1E0EA9328
:101088005A934A93A7E03EDDE0919B02AE81EA0FB6
:10109800EA93E0919C02EA93E0919F02EA930E940E
:1010A800710B0E94780BE0919B02EA93A0919C023D
:1010B8000E94710BEA0FEA933A93E091A0020E9412
:1010C800780BE0E8F0E0E017F10711F491DF02C0D7
:1010D80000939B020E940D0C28960895BA93AA9338
:1010E8001A93EC81EA93AC810ED0A981BA81ED9173
:1010F800A983BA831E2FE03019F0A12F8DDFF5CF19
:1011080018810C94490AAA93A981BB27D8DEE093D9
:101118009B02A881BB27E8DEE0939C020C947E0A20
:10112800BA93AA931A930A93AA81BB8112960E9432
:10113800DD0B309759F1AA81BB8114960E94DD0B13
:101148008F01309761F00230E0E01E0798F0F80157
:1011580031978F01AA81BB811496ED93FC93AA81E4
:10116800BB811296ED91FD913196FE93EE933197E6
:10117800AC81A083AA81BB810E94DD0BFF232AF0EA
:10118800ED91FD913196FE93EE9306C0AA81BB8145
:10119800EFEFFFEFED93FC931981088176C1BA93C5
:1011A800AA9326970E94060C10E0AC85BD85E0E066
:1011B800F0E0ED93FC93EA89FB893196EA8BFB8B8F
:1011C8003197E4912E2FE03009F415C1E12FE0307A
:1011D80039F4253211F411E002C00E94820B0AC1D1
:1011E800E130A9F4253219F40E94820B02C112E001
:1011F80040E000E02D3211F401E0FCC02B3211F484
:101208004BE2F8C0203211F440E2F4C002C0E230F0
:1012180039F450E013E0203311F40068EBC003C048
:10122800E33009F0E7C0203310F02A3308F007C094
:10123800AAE05A9F502DE22FE0535E0FDBC0E22F49
:10124800E33649F40E94890BE889F989A481AA93B5
:101258000E948F0BCEC0E33741F40E94890B0E9495
:10126800950B0E945C0A1E2F0AC0E03761F40E94A9
:10127800890B0E94950B0E94680A1E2F0860026065
:101288000F7730E034C0E43611F0E93611F4046029
:1012980002C0E53731F4E2E4F2E0EE83FF8315E0C3
:1012A8000CC0E83511F4086003C0E83709F0A1C0A4
:1012B800ECE4F2E0EE83FF8314E002FF14C00E9426
:1012C800890B0E949F0BAB85AA233AF4EA85FB851C
:1012D8000E94BC0BEA87FB874DE2403011F01F5F8C
:1012E80001C00B7F04C00E94890B0E949F0B00FD68
:1012F80011C0151778F407FF08C002FF04C00B7F60
:10130800242F115001C020E301C020E20E94820B6B
:101318005150EFCF312F01FF17C03030A1F003FF3C
:1013280006C0EE81FF812591EE83FF8305C0AE8163
:10133800BF812D91AE83BF830E94820B503009F08C
:1013480051503150EACF4BC020E3EE81FF810E941B
:10135800E10BE887F987EE81FF813296EE83FF8300
:10136800E885F985AA85BB85AE17BF0750F02F5FC2
:10137800A885B985EA85FB85EA1BFB0BEA87FB870D
:10138800EFCF2A3328F003FF02C0295F01C0295D8F
:1013980004FD1AC0213320F4A885B985119709F4F2
:1013A80009C0531710F000FF01C013C020E207FF67
:1013B8000BC020E3006102FF07C00B7F4A930E9425
:1013C8008F0B503009F051500E94820B503009F0B9
:1013D80051503150A885B985129708F0B5CF00FF54
:1013E80008C0503031F05150E0E2EA930E948F0B70
:1013F800F8CF10E0E0CEAC85BD850E94DD0B0E94E1
:101408000D0C64960895FF92F82E26970E94080CFA
:101418000E94A70B309719F4EFEFFFEF23C0DE010E
:1014280016960E94B80B8D010E94A70BEE83FF83CE
:10143800E0E0E887E987DE011A960E94B80B0E946F
:10144800DD0BFA93EA931A930A93E4E9F8E0FA9326
:10145800EA93DE011A96A3DE9F01AE81BF81E0E028
:10146800EC93F9010E940F0C2A96FF900895BA9305
:10147800AA93B981A881109631F0FC81EB816A8129
:1014880061931197E9F7EB81FC8125960895BA934A
:10149800AA93E991F991A991B991CD016D9166232A
:1014A800E9F7119761916D936623E1F7FC010895BF
:1014B800BA93AA93A991B991EE27FF276D91662354
:1014C80011F03196FBCF0895BA93AA93AA27BB27A8
:1014D800E991F9910590002011F01196FBCFFD01DB
:1014E8000895AA93E881F0E0E85CFD4FA491E981B2
:1014F8000E94C00B22960895AA931A93E981E730B7
:1015080011F0EA3019F41091990209C0E93019F480
:1015180010919A0204C0E830A1F41091A902E09158
:101528009A02E03049F0103019F0EFEF188129C025
:10153800EA81E095188125C0103019F4E0E018819F
:1015480020C0EA8118811DC0BA93AA93EA81E130CC
:1015580021F4E881F981E49114C0E23029F4A881EA
:10156800B9810E94E50B0DC0E33041F4A881B9812F
:10157800E091B202F091B302099503C0A881B98144
:10158800EC9123960895AA93EB81E03029F4E88141
:10159800A981BA81EC9314C0E23031F4E881A981C1
:1015A800BA810E94F10B0CC0E33051F4E981FA8151
:1015B800FA93EA93AA81E091B402F091B5020995F1
:1015C800249608950E942505A881B9810E945C0A85
:1015D800E093B602F093B7020895FA93EA93E6E52A
:1015E800F2E0FA93EA9380E00E94070A24960895AD
:1015F800E8EBF2E0FA93EA9308959398EFEFEABBE9
:10160800E881EBBB0E943F040C944304E695E69501
:10161800E695AE2F0C947E040E94A3040C948E04CD
:10162800EA0FFB1FEE83FF830895EC85EA93EF81B1
:10163800F8853196EF83F8873197FA93EA93A0E01B
:101648000C94C70AEC85EA93EF81F8853196EF830D
:10165800F8873197089566277727DF01CB010C9427
:10166800A80A5A93AA850C94800A0A930395E889D4
:10167800EA935A9308950A930395A8890E94B5049A
:10168800E42308955E2FEC85EA93AF81B885882717
:1016980099270E94A80A1E2E08950A930395E8899F
:1016A800EA93EE85EA93E985FA853196E987FA8720
:1016B8003197D1CFBA93AA93A881B9810E94020C1D
:1016C80008950E94060CE0919D02F0919E020895F3
:1016D800F8010F5F1F4F04900895E0919D02F0916B
:1016E8009E023196E4910895EA93E0E0EA93E0E0FF
:1016F800F0E0FA93EA93A9E00C9486052A93AD8565
:10170800BE85EF85F88909950895E889F9893497A0
:10171800E88BF98B0895AD85BE85EF85F889099525
:101728000895A889B98914960E94DD0BEE83FF837A
:10173800AE81BF810895A889B98914960E94DD0BEE
:10174800EA87FB870895DE011C960E94B80B0E9469
:10175800DD0B0895109639F080ED97E00197F1F7C9
:10176800A8951197C9F708950024AF0DB01D0895E5
:10177800F195E195F0400895EE230E2EEA2F19F029
:10178800EE0F0A94E9F70895EE230E2EEA2F19F0CA
:10179800E6950A94E9F70895EF2FFF27E7FDFFEF95
:1017A8000895FA9FF02DEB9FF00DEA9FE02DF10DC3
:1017B8000895ED91FC91119708950590F491E02D0D
:1017C8000895E199FECFFF93FFB7F894AEBBBFBB76
:1017D800E09AEDB3FFBFFF910895E19B02C0A89581
:1017E800FCCF9FB7F894AEBBBFBBE09A8DB3E817A8
:1017F80019F0EDBBE29AE19A9FBF089500240A16FA
:101808000B0608955A934A933A932A931A930A9384
:1018180008955D814C813B812A8119810881089551
:00000001FF
