:080000000C9465010C94000052
:100008000C9400000C9400000C9400000C94000068
:100018000C9400000C9400000C9400000C94000058
:100028000C9400000C9400000C9400000C949201B5
:100038000C9400000C9400000C9400000C94000038
:100048000C9400000C9400000C9400001027E803A6
:1000580064000A0001000010000110000100000007
:1000680000000000FF00C100810037003700810058
:10007800C100FF00FF00010001006D0001009100B8
:100088009300FF00C700830039007D007D007D00DC
:10009800BB00FF007D00010001007D0039008300E6
:1000A800C700FF007D00010001006D0045007D00D4
:1000B8003900FF007D00010001006D0047007F004E
:1000C8003F00FF00C700830039007D007500310044
:1000D800B100FF00FF0001000100EF00EF00010088
:1000E8000100FF00FF007D00010001007D00FF000E
:1000F800FF00FF00F300F100FD007D000100030098
:100108007F00FF007D00010001006D00C7001100A5
:100118003900FF007D00010001007D007D007900AD
:100128007100FF00010001008F00C7008F0001006F
:100138000100FF00010001009F00CF00E70001005F
:100148000100FF00FF00C700830039003900830069
:10015800C700FF007D00010001006D006F000F0067
:100168009F00FF00FF00870003007B007100010073
:100178008500FF007D00010001006D00670001009F
:100188009900FF009B0009004D0065003100B30095
:10019800FF00FF00FF003F007F00010001007D001D
:1001A8003F00FF0001000100F900F9000100010013
:1001B800F900FF00FF0007000300F900FB0003003F
:1001C8000700FF0001000100F300E700E70001005D
:1001D8000100FF003D001900C300E700C30019003B
:1001E8003D00FF00FF001F000D00E100E1000D00D1
:1001F8001F00FF001D003900710065004D00190047
:100208003100FF00000001002D4E414E00494E46CE
:1002180000000100020066000400040068000F00EE
:10022800A8026C000F00B8027C000F00C8028C0006
:100238000F00D8029C000F00E802AC000F00F80283
:10024800BC000F000803CC000F001803DC000F00EF
:100258002803EC000F003803FC000F0048030C01D2
:100268000F0058031C010F0068032C010F007803CE
:100278003C010F0088034C010F0098035C010F003C
:10028800A8036C010F00B8037C010F00C8038C01A0
:100298000F00D8039C010F00E803AC010F00F8031E
:1002A800BC010F000804CC010F001804DC010F008A
:1002B8002804EC010F003804FC01010048040E0278
:1002C8000000F894EE27ECBBF1E0FBBFEBBFE5BF05
:1002D8008DE0A2E0BB27ED938A95E9F780E098E0EE
:1002E800A0E6ED930197E9F7EAE1F2E085919591AF
:1002F800009761F0A591B59105901590BF01F001A7
:1003080005900D920197E1F7FB01F0CFEFE5EDBF06
:10031800E8E0EEBFC0E6D2E00C94C801EA93FA9395
:10032800EFB7EA931A930A931BB10CB1E12FEC7162
:1003380089F4E52D5394F0E0E05AFD4F0083E0E2A4
:10034800E51509F455247394E0E2E71519F47724C8
:10035800689420F809911991E991EFBFF991E99111
:1003680018951A937720F1F3E42D4394F0E0E05ABE
:10037800FD4F1081E0E2E41509F44424F8947A94DE
:100388007894E12F19910895EFEFEABBE0E0EBBB19
:10039800E7BBE8BBEFEFE4BBE0E0E5BBE1BBE2BBFA
:1003A800E5BFE4BFEBB9E0E9EAB9E6E8E0BDE0E0C3
:1003B800E0BDE3E3E9B9E0E8E8B9E0E0E0BFE6B9C9
:1003C800EDB9E6BF7894CDDF6E2ECBDF9E2EF92DEA
:1003D800E0E0DF01E62DF0E0EA0FFB1FE093A60264
:1003E800F093A702E0E0E093A202E093A302E09179
:1003F800A602F091A702A091A202B091A302AE17A3
:10040800BF078CF4E091A202F091A302E058FD4FDF
:10041800FF93EF93A6DFAF91BF91EC93A2EAB2E00E
:100428000E948E05E4CFA0E8B2E049D1E0E8F2E00E
:10043800FA93EA93ECE0F2E0FA93EA9380E00E9400
:100448005A052496E0E0E093A602E093A702A4EF01
:10045800B1E00E94DD05B7CFFFCFBA93AA93EA8136
:10046800F0E0E032A0E0FA0709F41EC1E134A0E0B0
:10047800FA0739F4E881F981A8EAB2E00E94940504
:1004880014C1E234A0E0FA0739F4E881F981A8EB55
:10049800B2E00E94940509C1E334A0E0FA0739F4F8
:1004A800E881F981A8ECB2E00E949405FEC0E4342A
:1004B800A0E0FA0739F4E881F981A8EDB2E00E94DA
:1004C8009405F3C0E534A0E0FA0739F4E881F9812E
:1004D800A8EEB2E00E949405E8C0E634A0E0FA076E
:1004E80039F4E881F981A8EFB2E00E949405DDC0F3
:1004F800E734A0E0FA0739F4E881F981A8E0B3E02D
:100508000E949405D2C0E834A0E0FA0739F4E881E3
:10051800F981A8E1B3E00E949405C7C0E934A0E0DE
:10052800FA0739F4E881F981A8E2B3E00E9494055A
:10053800BCC0EA34A0E0FA0739F4E881F981A8E3FD
:10054800B3E00E949405B1C0EB34A0E0FA0739F497
:10055800E881F981A8E4B3E00E949405A6C0EC34D0
:10056800A0E0FA0739F4E881F981A8E5B3E00E9430
:1005780094059BC0ED34A0E0FA0739F4E881F981CD
:10058800A8E6B3E00E94940590C0EE34A0E0FA0714
:1005980039F4E881F981A8E7B3E00E94940585C0A1
:1005A800EF34A0E0FA0739F4E881F981A8E8B3E06C
:1005B8000E9494057AC0E035A0E0FA0739F4E88192
:1005C800F981A8E9B3E00E9494056FC0E135A0E085
:1005D800FA0739F4E881F981A8EAB3E00E949405A2
:1005E80064C0E235A0E0FA0739F4E881F981A8EBA4
:1005F800B3E00E94940559C0E335A0E0FA0739F446
:10060800E881F981A8ECB3E00E9494054EC0E43576
:10061800A0E0FA0739F4E881F981A8EDB3E00E9477
:10062800940543C0E535A0E0FA0739F4E881F9817B
:10063800A8EEB3E00E94940538C0E635A0E0FA07BA
:1006480039F4E881F981A8EFB3E00E9494052DC040
:10065800E735A0E0FA0739F4E881F981A8E0B4E0C9
:100668000E94940522C0E835A0E0FA0739F4E88131
:10067800F981A8E1B4E00E94940517C0E935A0E02B
:10068800FA0739F4E881F981A8E2B4E00E949405F8
:100698000CC0EA35A0E0FA0739F4E881F981A8E34B
:1006A800B4E00E94940501C0EFEFEBBB23960895D8
:1006B800BA93AA93A881EFE1EA1BE5BB6EC0BA938F
:1006C800AA93A881B9810E94D303E093A402F0936E
:1006D800A502A091A402B091A5021597CCF1CC2453
:1006E800DD24E091A402F091A50234970E94EF0561
:1006F800CE16DF0664F5E0E0E093A002E093A102E5
:10070800A091A002B091A1025497E4F4AA24BB24BA
:10071800E0E2F0E0AE16BF0684F4D501C9DFD601E9
:10072800AA0DBB1D0E949A05F601EA0DFB1D0E9449
:10073800A505F50131965F01EBCFA0EAB2E00E9472
:100748008E05DECFF60131966F013197CACF25C0ED
:10075800E0E0E093A002E093A102A091A002B09192
:10076800A102A436E0E0BE07C4F4AA24BB24E0E258
:10077800F0E0AE16BF0664F4D5019ADFD5010E94F9
:100788009A05F5010E94A505F50131965F01EFCFA5
:10079800A0EAB2E00E948E05E0CF22960895BA93AF
:1007A800AA93A991B991EE27FF276D91662311F0BD
:1007B8003196FBCF0895BA93AA93AA27BB27E9914C
:1007C800F9910590002011F01196FBCFFD010895D5
:1007D800BA93AA931A930A93AA81BB8112960E948C
:1007E8002606309729F1AA81BB8114960E94260615
:1007F8008F01309761F00230E0E01E0780F0F801C9
:1008080031978F01AA81BB811496ED93FC93AA813D
:10081800BB8112960E948E053197AC81A083AA8174
:10082800BB810E942606FF2312F00E948E0506C097
:10083800AA81BB81EFEFFFEFED93FC93198108814B
:1008480025960895BA93AA9326970E942E0610E03B
:10085800AC85BD85E0E0F0E0ED93FC93EA89FB8987
:100868003196EA8BFB8B3197E4912E2FE03009F417
:1008780015C1E12FE03039F4253211F411E002C03E
:100888000E94B1050AC1E130A9F4253219F40E9489
:10089800B10502C112E040E000E02D3211F401E0A0
:1008A800FCC02B3211F44BE2F8C0203211F440E2C4
:1008B800F4C002C0E23039F450E013E0203311F400
:1008C8000068EBC003C0E33009F0E7C0203310F044
:1008D8002A3308F007C0AAE05A9F502DE22FE053B0
:1008E8005E0FDBC0E22FE33649F40E94B805E889C1
:1008F800F989A481AA930E94BE05CEC0E33741F4CA
:100908000E94B8050E94C4050E94D3031E2F0AC086
:10091800E03761F40E94B8050E94C4050E94DF0315
:100928001E2F086002600F7730E034C0E43611F003
:10093800E93611F4046002C0E53731F4E4E5F0E08B
:10094800EE83FF8315E00CC0E83511F4086003C09E
:10095800E83709F0A1C0EEE5F0E0EE83FF8314E08C
:1009680002FF14C00E94B8050E94CE05AB85AA23D9
:100978003AF4EA85FB850E94EB05EA87FB874DE29E
:10098800403011F01F5F01C00B7F04C00E94B80502
:100998000E94CE0500FD11C0151778F407FF08C0A6
:1009A80002FF04C00B7F242F115001C020E301C0B7
:1009B80020E20E94B1055150EFCF312F01FF17C03F
:1009C8003030A1F003FF06C0EE81FF812591EE8350
:1009D800FF8305C0AE81BF812D91AE83BF830E9486
:1009E800B105503009F051503150EACF4BC020E3E7
:1009F800EE81FF810E942A06E887F987EE81FF8150
:100A08003296EE83FF83E885F985AA85BB85AE1704
:100A1800BF0750F02F5FA885B985EA85FB85EA1BDB
:100A2800FB0BEA87FB87EFCF2A3328F003FF02C0CE
:100A3800295F01C0295D04FD1AC0213320F4A8856F
:100A4800B985119709F409C0531710F000FF01C0C8
:100A580013C020E207FF0BC020E3006102FF07C0BC
:100A68000B7F4A930E94BE05503009F051500E94F6
:100A7800B105503009F051503150A885B985129709
:100A880008F0B5CF00FF08C0503031F05150E0E217
:100A9800EA930E94BE05F8CF10E0E0CEAC85BD8594
:100AA8000E9426060E94350664960895FF92F82E45
:100AB80026970E9430060E94D605309719F4EFEF6A
:100AC800FFEF23C0DE0116960E94E7058D010E9404
:100AD800D605EE83FF83E0E0E887E987DE011A9612
:100AE8000E94E7050E942606FA93EA931A930A934E
:100AF800ECEEF3E0FA93EA93DE011A96A3DE9F0187
:100B0800AE81BF81E0E0EC93F9010E9437062A9696
:100B1800FF900895ED91FD913196FE93EE9308951F
:100B2800EE0FFF1FAE0FBF1FEC910895E8E0F0E055
:100B38000E940906A881B981AE0FBF1FEC91EA9304
:100B48000895A7E0B0E00E940E06DF010E9431027E
:100B580080EB94E00197F1F708952A93AD85BE855F
:100B6800EF85F88909950895E889F9893497E88B1C
:100B7800F98B0895AD85BE85EF85F88909950895A7
:100B8800A889B98914960E942606EE83FF83AE8150
:100B9800BF810895A889B98914960E942606EA8714
:100BA800FB870895DE011C960E94E7050E94260631
:100BB8000895109639F080ED97E00197F1F7A89520
:100BC8001197C9F708950024AF0DB01D0895F19548
:100BD800E195F0400895EE0FFF1FEE0FFF1FEE0F97
:100BE800FF1F08950024112490E1AA0FBB1F001CC9
:100BF800111C0E1A1F0A18F40E0E1F1E01C0A16048
:100C08009A9599F7FD01D00108950ED0EBDF0EF407
:100C1800DEDF0895E894F7FF02C0D9DF6894EA237D
:100C2800FB230EF4D4DF0895E894F7FF02C0CFDF6A
:100C38006894B7FF06C0A095B095119600F8039484
:100C480000FA0895ED91FC91119708950590F4919B
:100C5800E02D08955A934A933A932A931A930A9344
:100C680008955D814C813B812A811981088108950D
:00000001FF
